:100000000C9462000C948A000C948A000C948A0070
:100010000C948A000C948A000C948A000C948A0038
:100020000C948A000C948A000C948A000C948A0028
:100030000C948A000C948A000C948A000C948A0018
:100040000C9468080C948A000C948A000C948A0022
:100050000C948A000C948A000C948A000C948A00F8
:100060000C948A000C948A000000000023002600F3
:10007000290000000008000201000003040700003E
:1000800000000000000000000000250028002B00F8
:1000900000000000240027002A00040404040404D3
:1000A0000404020202020202030303030303010227
:1000B00004081020408001020408102001020408F6
:1000C0001020B30A11241FBECFEFD8E0DEBFCDBF92
:1000D00011E0A0E0B1E0E2E2F8E102C005900D928B
:1000E000AA33B107D9F725E0AAE3B1E001C01D9218
:1000F000A234B207E1F710E0C2E6D0E004C02197D5
:10010000FE010E94FD0BC136D107C9F70E94B2085B
:100110000C940F0C0C940000CF93DF9390E0FC0143
:10012000E255FF4F249186569F4FFC01849188230E
:10013000C1F090E0880F991FFC01E057FF4FC59177
:10014000D491FC01EA57FF4FA591B4919FB7F89461
:100150003881822F809583238883EC91E22BEC9366
:100160009FBFDF91CF91089590E0FC01EE58FF4FC3
:100170002491FC01E255FF4F3491FC01E656FF4FFC
:10018000E491EE23C1F1222339F02330E9F090F419
:10019000213001F1223011F1F0E0EE0FFF1FE8599C
:1001A000FF4FA591B491EC91E32381E090E029F514
:1001B00080E008952730A9F02830C9F0243061F795
:1001C000809180008F7D03C0809180008F77809325
:1001D0008000E2CF84B58F7784BDDECF84B58F7D7C
:1001E000FBCF8091B0008F778093B000D5CF809106
:1001F000B0008F7DF9CF80E090E008953FB7F8948C
:100200008091630190916401A0916501B0916601B4
:1002100026B5A89B05C02F3F19F00196A11DB11D61
:100220003FBFBA2FA92F982F8827BC01CD01620F9D
:10023000711D811D911D42E0660F771F881F991F58
:100240004A95D1F70895AF92BF92DF92EF92FF9255
:100250000F931F93CF93DF93D82E80912205909117
:100260002305A0912405B0912505892B8A2B8B2B82
:10027000D9F00E94FE0000913E0510913F052091AB
:10028000400530914105601B710B820B930B00916F
:100290002205109123052091240530912505601732
:1002A000710782079307C8F20E94FE0060933E0523
:1002B00070933F058093400590934105E0912A0596
:1002C000F0912B05309759F0409126055091270564
:1002D00060912805709129058D2D0995D82EC09122
:1002E0003C05D0913D050CE215E07801209711F115
:1002F0008CE3E81685E0F806E9F0E881F981A2844C
:10030000B3840680F781E02DCE010995BC01CE01B2
:10031000F5010995F701819391937F018091200563
:10032000909121058436910508F41C860C80DD81AE
:10033000C02DDCCFC0913C05D0913D0588E0E82E72
:10034000F12C2097B1F08D85882361F04E855F8573
:100350006A817B81E881F9810280F381E02D2D2D76
:10036000CE0109950C80DD81C02DF1E0EF1AF10876
:1003700041F7C0913C05D0913D05209799F085E06B
:100380000C33180779F0F801619171918F01E881C0
:10039000F9810484F585E02DCE0109950C80DD817D
:1003A000C02DEBCF80911D0590911E059C012F5F04
:1003B0003F4F30931E0520931D0549970CF44AC00A
:1003C0008FB7F894209115053091160540911705C7
:1003D000509118058FBF8091190590911A05A09131
:1003E0001B05B0911C05281B390B4A0B5B0B21F434
:1003F00021E030E040E050E0E0911D05F0911E0565
:1004000088EE93E0E89FB001E99F700DF89F700DB2
:100410001124072E000C880B990B0E949D0B309322
:1004200021052093200510921E0510921D052FB75F
:10043000F8948091150590911605A0911705B0913B
:1004400018052FBF8093190590931A05A0931B05DB
:10045000B0931C05DF91CF911F910F91FF90EF900A
:10046000DF90BF90AF9008958F929F92AF92BF920E
:10047000CF92DF92EF92FF924B015C010E94FE004F
:100480006B017C010E94FE006C197D098E099F0999
:10049000683E734081059105A8F321E0821A910816
:1004A000A108B10888EEC80E83E0D81EE11CF11C3B
:1004B00081149104A104B10429F7FF90EF90DF901B
:1004C000CF90BF90AF909F908F900895AF92BF92C2
:1004D000CF92DF92EF92FF920F931F93CF93DF9310
:1004E00000D01F92CDB7DEB75A0119821A821B8243
:1004F000882361F18B01E1E0F0E0E82EF12CD801D6
:100500002D918D012223F1F06F01B1E0CB1AD108BA
:10051000D501AC0DBD1D4C914423A1F030E02F5FFF
:100520003F4FD7010E94BF0BA42FB0E011969B0153
:10053000AC010E948A0BA1E0B0E0AC0FBD1FAC0D76
:10054000BD1D8C933196E430F105C9F669817A813D
:100550008B810F900F900F90DF91CF911F910F9192
:10056000FF90EF90DF90CF90BF90AF90089581E023
:1005700090E008950F931F93CF93DF932091610133
:100580002F5F322F37703093610120FF2BC020E89E
:1005900031FD2064347009F02062205FFC01EC0121
:1005A000239600E011E06785662329F070E0C8011A
:1005B0000E94CE0B6F5F6187822F869F080E80E0BE
:1005C000811D1124811110C01682662311F0615023
:1005D00061873196EC17FD0731F7DF91CF911F91BD
:1005E0000F91089520E0D4CF81508683EECF4F92B3
:1005F0005F927F928F929F92AF92BF92CF92DF9243
:10060000EF92FF920F931F93CF93DF932C01EB0197
:100610000E94FE00F20126893789621B730B6A3043
:100620007105B0F3F8948A819B81181619060CF0B5
:10063000CDC1E881F9816BB1862E689486F83BB113
:100640003F7B3BB9DA848F812D2D281B822F2F838E
:100650004C85042E000C550BAA81BB817889FF8440
:10066000E9887F5FF394E3949E819884B984AB8496
:100670001181C12C6C2D0C2D2C2D218111278894DA
:100680002111280F08F42FEF8195889470FD120F27
:100690001795889471FD120F1795889472FD120FAB
:1006A0001795889473FD120F1795889474FD120F97
:1006B0001795889475FD120F1795889476FD120F83
:1006C0001795889477FD120F17958894622F7111F2
:1006D000612F8D0D162F002C8BB800C017FF3BB972
:1006E00020816627889400C000C0002C3BB92111EE
:1006F000290F00C0002C8BB800C016FF3BB908F4CE
:100700002FEF9195889400C000C0002C3BB9F0FCFD
:10071000620F00C0002C8BB800C015FF3BB9679575
:100720008894F1FC620F00C000C0002C3BB96795B3
:10073000889400C0002C8BB800C014FF3BB9F2FCB9
:10074000620F6795889400C000C0002C3BB9F3FC91
:10075000620F00C0002C8BB800C013FF3BB9679537
:100760008894F4FC620F00C000C0002C3BB9679570
:10077000889400C0002C8BB800C012FF3BB9F5FC78
:10078000620F6795889400C000C0002C3BB9F6FC4E
:10079000620F00C0002C8BB800C011FF3BB96795F9
:1007A0008894F7FC620F00C000C0002C3BB967952D
:1007B000889400C0002C8BB800C010FF3BB9122FEA
:1007C000F110162F9B0D00C000C0002C3BB900C0DB
:1007D00000C0002C8BB800C017FF3BB922816627F0
:1007E000889400C000C0002C3BB92111290D00C025
:1007F000002C8BB800C016FF3BB908F42FEFE40FB4
:10080000F51F00C000C0002C3BB9E0FC620F00C027
:10081000002C8BB800C015FF3BB967958894E1FCAC
:10082000620F00C000C0002C3BB96795889400C0DF
:10083000002C8BB800C014FF3BB9E2FC620F679537
:10084000889400C000C0002C3BB9E3FC620F00C0DC
:10085000002C8BB800C013FF3BB967958894E4FC6B
:10086000620F00C000C0002C3BB96795889400C09F
:10087000002C8BB800C012FF3BB9E5FC620F6795F6
:10088000889400C000C0002C3BB9E6FC620F00C099
:10089000002C8BB800C011FF3BB967958894E7FC2A
:1008A000620F00C000C0002C3BB96795889400C05F
:1008B000002C8BB800C010FF3BB9122FE110162F8F
:1008C000919400C000C0002C3BB99A0C00C000C03D
:1008D0008BB800C017FF3BB921816627889400C000
:1008E00000C0002C3BB92111280F00C0002C8BB890
:1008F00000C016FF3BB908F42FEF8195889400C023
:1009000000C0002C3BB970FD620F00C0002C8BB8FA
:1009100000C015FF3BB96795889471FD620F00C058
:1009200000C0002C3BB96795889400C0002C8BB8A0
:1009300000C014FF3BB972FD620F6795889400C038
:1009400000C0002C3BB973FD620F00C0002C8BB8B7
:1009500000C013FF3BB96795889474FD620F00C017
:1009600000C0002C3BB96795889400C0002C8BB860
:1009700000C012FF3BB975FD620F6795889400C0F7
:1009800000C0002C3BB976FD620F00C0002C8BB874
:1009900000C011FF3BB96795889477FD620F00C0D6
:1009A00000C0002C3BB96795889400C0002C8BB820
:1009B00000C010FF3BB9122F7111162F8D0D00C012
:1009C00000C0002C3BB9119709F086CEEA81FB816B
:1009D0002EE130E0DF010E94E20B30E020E0A901CF
:1009E000AAE9EA9F0E0E411DFA9F400D511D1124E8
:1009F0004F0F511DDC01CB01840F951FA11DB11DAF
:100A0000893E43E09407A105B10508F434C0885E2F
:100A10009340A109B10942E0B695A79597958795AE
:100A20004A95D1F747E0849F080E211D949F200D21
:100A3000311D1124290F311D6091600170E0860F76
:100A4000971F820F931F40911505509116056091D5
:100A5000170570911805292F3327420F531F611D69
:100A6000711D4093150550931605609317057093FB
:100A700018058093600178940E94FE00F201778B44
:100A8000668BDF91CF911F910F91FF90EF90DF90D8
:100A9000CF90BF90AF909F908F907F905F904F903E
:100AA000089580E991E00895569A08956F927F9293
:100AB0008F92CF92DF92EF92FF920F931F93CF937B
:100AC000DF93CDB7DEB762970FB6F894DEBF0FBEE7
:100AD000CDBF8C016B017A01822FA801475F5F4F68
:100AE000B8016A5F7F4F0E9466023B01882ED801E1
:100AF0001C962C91C701F7FE04C0882799278E19F0
:100B00009F09DA82C9829C838B839E838D83688A46
:100B1000798A8A8A213049F5CE0101960E94BA026B
:100B200083E08D871F861E86F7FE02C08DEF8D87BE
:100B3000D801ED91FC910088F189E02DBE016F5F35
:100B40007F4FC801099562960FB6F894DEBF0FBEBD
:100B5000CDBFDF91CF911F910F91FF90EF90DF906C
:100B6000CF908F907F906F9008951C861B861A8679
:100B7000198618861F82D4CFCF92DF92EF92FF9210
:100B80000F931F93CF93DF93CDB7DEB762970FB666
:100B9000F894DEBF0FBECDBF8C016B017A01822FAE
:100BA000A801475F5F4FB8016A5F7F4F0E946602EE
:100BB0009B01482FD8011C968C91DA82C982FC8255
:100BC000EB82FE82ED82288B398B4A8B813009F5CE
:100BD000CE0101960E94BA021D861F861E86D8018C
:100BE000ED91FC910088F189E02DBE016F5F7F4F90
:100BF000C801099562960FB6F894DEBF0FBECDBF4F
:100C0000DF91CF911F910F91FF90EF90DF90CF90E8
:100C100008951C861B861A86198618861F82DCCFCB
:100C2000089588309105A8F46830710590F453E078
:100C3000660F771F5A95E1F7860F971FFC01EE0F9D
:100C4000FF1FE80FF91FEB5EFD4F208331834283C6
:100C50000895FC013897E830F105A0F477FDF8CF4E
:100C600068307105CCF4685F7F4F83E0660F771FB3
:100C70008A95E1F76E0F7F1FFB01EE0FFF1FE60F56
:100C8000F71FE1CF8830910518F7FB0138973897A7
:100C9000F8F6685F7F4FCBCF60317105CCF6605FAF
:100CA0007F4FE3CF0F931F93CF93DF93C091060144
:100CB000D091070100910401109105012FEF30EC54
:100CC0004BECBE01C8010E94110621962FEF30ECBB
:100CD0004BECBE01C80101970E9411062FEF30ECCA
:100CE0004BECBE01C8010E9411062FEF30EC4BEC1B
:100CF000BE01C8010196DF91CF911F910F910C9415
:100D00001106EF92FF920F931F93CF93DF938DE91C
:100D1000E82E81E0F82E01E010E0D0E0C0E0F7011D
:100D2000EC0FFD1F8081882339F027E83EEC4AEF65
:100D3000BE01C8010E9411062196C830D10579F77D
:100D40000F5F1F4F88E0E80EF11C0F30110529F7E7
:100D5000DF91CF911F910F91FF90EF90089590E058
:100D600080E00895FC0164870895FC01848590E08B
:100D70000895FC01868597850895CF93DF93C091F0
:100D80003C05D0913D05209799F08A819B81009781
:100D900059F02E853F85A901440F551F420F531F5F
:100DA00070E060E00E94080C0C80DD81C02DEBCF6C
:100DB000DF91CF910895CF92DF92EF920F931F931F
:100DC000CF93DF936B01E82EC3E0D0E005E115E09F
:100DD0000E94BD06E5E1F2E0C192D192E1920E17C8
:100DE0001F07D1F780911F050E94230164E670E080
:100DF00080E090E00E9434020E94BD06219741F7F6
:100E0000DF91CF911F910F91EF90DF90CF900895D8
:100E10000F931F93CF93DF930E94BD060E9481061C
:100E20000E945206609102017091030177FD09C092
:100E30002FEF3FEF4FEF80910001909101010E9451
:100E40001106C7E6D1E010E000E080919301909197
:100E50009401081719079CF4888199818F3F98079E
:100E600051F06A817B816F3F760729F02FEF3FEFCA
:100E700040E00E9411060F5F1F4F2496E6CF80913D
:100E80001F05DF91CF911F910F910C9423014F9279
:100E90005F926F927F928F929F92AF92BF92CF920A
:100EA000DF92EF92FF921F93CF93DF9380914001E7
:100EB000811157C010924B0110924A018FEF80931D
:100EC0004E0180934F018093500180935101809394
:100ED00052018093530181E0809354018093550126
:100EE000109257011092560180E797E190935901B3
:100EF0008093580183E090E090935B0180935A01C6
:100F000010925D0110925C0110924D0110924C0103
:100F100080913C0590913D05892B31F488E491E066
:100F200090933D0580933C05E0913E01F0913F0197
:100F3000309721F088E491E09583848388E491E000
:100F400090933F0180933E0110925F0110925E01E9
:100F500088E291E0909349018093480181E0809379
:100F60004001569A85E192E090934B0180934A01AB
:100F700080E091E090935701809356018091220583
:100F800090912305A0912405B0912505843C29E08A
:100F90009207A105B10520F484EC99E0A0E0B0E04F
:100FA0008093220590932305A0932405B0932505F3
:100FB00082E00E948C0083E00E948C0084E00E940A
:100FC0008C0085E00E948C0087E00E948C0086E007
:100FD00090E090930501809304018EE090E090935F
:100FE0000701809306010E94130B24E030E040E0EB
:100FF00050E00E946B0B685F7F4F8F4F9F4F709345
:10100000940160939301D0E0C0E09EE0892E912C82
:10101000A12CB12C28E0422E512C612C712C11E016
:101020002091930130919401C217D307ACF0E7E609
:10103000F1E090E080E040910C0150910D01609151
:101040000E0170910F01821793074CF54193519354
:10105000619371930196F7CF0E94130BA501940140
:101060000E946B0B6B017C012FEFC21AD20AE20ABD
:10107000F20A0E94130BA30192010E946B0BF6016E
:1010800083E0EE0FFF1F8A95E1F7EB56FE4FE60F68
:10109000F71F80818111C4CF10832196C1CF0E9498
:1010A00081060E94520680911F05DF91CF911F910A
:1010B000FF90EF90DF90CF90BF90AF909F908F9078
:1010C0007F906F905F904F900C9423010E94030CCF
:1010D0001F920F920FB60F9211242F933F938F936D
:1010E0009F93AF93BF938091150590911605A091A2
:1010F0001705B09118053091620123E0230F2D37B9
:1011000058F50196A11DB11D20936201809315052C
:1011100090931605A0931705B0931805809163016D
:1011200090916401A0916501B09166010196A11DA5
:10113000B11D8093630190936401A0936501B09306
:101140006601BF91AF919F918F913F912F910F9029
:101150000FBE0F901F90189526E8230F0296A11D31
:10116000B11DD2CF789484B5826084BD84B581608E
:1011700084BD85B5826085BD85B5816085BD809162
:101180006E00816080936E001092810080918100DA
:1011900082608093810080918100816080938100D2
:1011A000809180008160809380008091B100846094
:1011B0008093B1008091B00081608093B0008091F5
:1011C0007A00846080937A0080917A0082608093B4
:1011D0007A0080917A00816080937A0080917A0011
:1011E000806880937A001092C1000E944707409067
:1011F0000C0150900D0160900E0170900F01EAE01B
:101200008E2E912CA12CB12C22242A94322C85E9EB
:1012100091E041E030E020E0FC01E20FF31F50815B
:101220005111C7C02F5F3F4F28303105A9F70896ED
:1012300022E08531920771F7442349F00E94BD06F0
:1012400060E070E880E00E94DB060E94470782E0D1
:101250000E94B400892B71F48091060190910701DE
:10126000893091053CF00197909307018093060126
:101270000E94080783E00E94B400892B71F48091DA
:101280000601909107018E3091053CF401969093F0
:101290000701809306010E94080784E00E94B400C1
:1012A000892B71F4809104019091050182309105A0
:1012B0003CF0019790930501809304010E94080778
:1012C00085E00E94B400892B71F480910401909113
:1012D00005018E3091053CF40196909305018093B1
:1012E00004010E94080787E00E94B400892BB1F432
:1012F0008091020190910301019681F48091040193
:101300009091050190930101809300018091060165
:101310009091070190930301809302018091020153
:101320009091030197FD1FC0883091050CF043C0D8
:10133000E0910001F091010173E0EE0FFF1F7A953B
:10134000E1F7EB56FE4FE80FF91F2081222399F1B8
:10135000108230920101209200013092030120920C
:1013600002010E94080707E611E0E801F12CE12CD8
:101370008091930190919401E816F9060CF078C0E1
:10138000488159814F3F540779F08A819B818F3F73
:10139000980751F001969B838A8380319105C4F0B0
:1013A000488259826A827B822FEFE21AF20A2496DF
:1013B000DFCF40E03CCF019790930301809302017F
:1013C0008F3F980771F69093010180930001C9CF78
:1013D00020910401309105014217530739F46091BF
:1013E0000601709107018617970759F1B9016150FD
:1013F00071094617570749F460910601709107017A
:101400006F5F7F4F86179707E1F04217530749F444
:1014100060910601709107016F5F7F4F86179707F4
:1014200081F02F5F3F4F4217530709F0BDCF209146
:101430000601309107012F5F3F4F8217930709F094
:10144000B3CFE5E9F1E01086118612861386148683
:101450001586168617863896B2E0E530FB0799F7B1
:101460006FEF70E080E00E94DB060E9447079CCF90
:101470000E9408070E94130BA50194010E946B0BA8
:1014800062307105810591050CF04AC0C09093014E
:10149000D09094010D2C000CEE08FF0860E070E085
:1014A000CB011C141D041E041F0434F40E94130BF2
:1014B000A70196010E946B0BDB014DE951E070E042
:1014C00060E021E030E090E080E0FA01E80FF91FF1
:1014D000E081EE23D1F1A617B707A9F5E0919301BA
:1014E000F091940150E040E04E175F07CCF4D80132
:1014F0006D917C916F3F7F4F09F5D80112966D91E8
:101500007C916F3F7F4FD1F4440F551F440F551FFF
:10151000FA01E959FE4F3183208301969383828338
:1015200064EB70E080E090E00E94340280E090E0A4
:10153000892B09F46CCE0E94000069CE4F5F5F4F8B
:101540000C5F1F4FD1CF6F5F7F4F019688309105A1
:1015500009F0BBCF2F5F3F4F485F5F4F2F30310502
:1015600009F0B1CFDDCFEFE1F5E08FEF808312829C
:101570001182148613868FEF9FEFDC01878390879B
:10158000A187B287138214821582168208958F92E2
:101590009F92AF92BF92CF92DF92EF92FF92CF9342
:1015A000DF93EC01688179818A819B8161157105E6
:1015B0008105910521F464E279ED8BE597E02DE159
:1015C00033EF41E050E00E946B0B49015A019B014F
:1015D000AC01A7EAB1E40E948A0B6B017C01ACEE7E
:1015E000B4EFA50194010E94980BC60ED71EE81E09
:1015F000F91EF7FE06C081E0C81AD108E10880E8AC
:10160000F80AC882D982EA82FB82C701B6019F77B5
:10161000DF91CF91FF90EF90DF90CF90BF90AF9090
:101620009F908F9008958F929F92AF92BF92CF928A
:10163000DF92EF92FF926091080170910901809111
:101640000A0190910B01611571058105910521F445
:1016500064E279ED8BE597E02DE133EF41E050E076
:101660000E946B0B49015A019B01AC01A7EAB1E44E
:101670000E948A0B6B017C01ACEEB4EFA5019401D2
:101680000E94980BC60ED71EE81EF91EF7FE06C074
:1016900081E0C81AD108E10880E8F80AC092080180
:1016A000D0920901E0920A01F0920B01C701B60144
:1016B0009F77FF90EF90DF90CF90BF90AF909F907B
:1016C0008F900895609308017093090180930A0137
:1016D00090930B010895052E97FB1EF400940E9431
:1016E000820B57FD07D00E949D0B07FC03D04EF4E0
:1016F0000C94820B50954095309521953F4F4F4F5C
:101700005F4F089590958095709561957F4F8F4FAD
:101710009F4F08950E94BF0BA59F900DB49F900D01
:10172000A49F800D911D11240895B7FF0C948A0B7E
:101730000E948A0B821B930B0895A1E21A2EAA1B0A
:10174000BB1BFD010DC0AA1FBB1FEE1FFF1FA21771
:10175000B307E407F50720F0A21BB30BE40BF50B6E
:10176000661F771F881F991F1A9469F760957095F7
:10177000809590959B01AC01BD01CF010895A29F7A
:10178000B001B39FC001A39F700D811D1124911D55
:10179000B29F700D811D1124911D089597FB072E96
:1017A00016F4009407D077FD09D00E94E90B07FCDE
:1017B00005D03EF4909581959F4F08957095619561
:1017C0007F4F08950E94BF0BB7FF0895821B930BB4
:1017D0000895AA1BBB1B51E107C0AA1FBB1FA61778
:1017E000B70710F0A61BB70B881F991F5A95A9F7CA
:1017F00080959095BC01CD010895EE0FFF1F0590D7
:10180000F491E02D099481E090E0F8940C940F0C91
:10181000DC0101C06D9341505040E0F70895F89409
:02182000FFCFF8
:10182200FFFFFFFF06000E0001000000FFFFFFFFA9
:1018320000000000660866086608B906B702B50629
:10184200B206AF0600000000BC0556055405B906F5
:0A185200B702B506B2065105F70211
:00000001FF
